S016000044656D6F446F6F6D4672696461792E737265639B
S3158002000027BDFFD0AFBF002CAFBE002803A0F021D2
S315800200102402000FA3C20018A3C0001924020005FF
S31580020020AFC2001C24020009AFC20020AFC0002468
S3158002003027C4001C27C5002027C3002427C2001816
S3158002004000603021004038210C00805300000000FF
S3158002005027C2001CAFC2001027C20020AFC2001404
S315800200608FC400108FC500140C00803F0000000072
S315800200708FC200108C420000AFC2001C8FC20014D7
S315800200808C420000AFC200200800802B00000000D6
S315800200908FC300248FC2002000621023AFC20024C7
S315800200A08FC200202442FFFFAFC200208FC20020F1
S315800200B00441FFF7000000008FC20020284200039F
S315800200C0104000030000000024020030AFC200206E
S315800200D08FC3001C8FC20020006218218FC20024A9
S315800200E00062102103C0E8218FBF002C8FBE00283A
S315800200F027BD003003E000080000000027BDFFF0A6
S31580020100AFBE000C03A0F021AFC40010AFC500142F
S315800201108FC200108C420000AFC200008FC2001452
S315800201208C4300008FC20010AC4300008FC20014C3
S315800201308FC30000AC43000003C0E8218FBE000CD1
S3158002014027BD001003E000080000000027BDFFE87D
S31580020150AFBF0014AFBE001003A0F021AFC40018D9
S31580020160AFC5001CAFC60020AFC700248FC2001CDB
S315800201708C420000000218808FC2001CAC43000033
S315800201808FC200188C420000000218438FC20018EA
S31580020190AC4300008FC400188FC5001C8FC6002098
S315800201A08FC700240C0080710000000003C0E82184
S315800201B08FBF00148FBE001027BD001803E0000811
S315800201C00000000027BDFFF8AFBE000403A0F021A7
S315800201D0AFC40008AFC5000CAFC60010AFC700148D
S315800201E08FC200088C4300008FC2000C8C42000034
S315800201F0706218028FC200149042000000621821B9
S315800202008FC20010AC43000003C0E8218FBE0004F9
S3118002021027BD000803E000080000000083
S7058002000078