S00C0000666163742E737265637A
S3158002000027BDFFE8AFBF0014AFBE001003A0F021EA
S31580020010AFC400188FC2001814400004000000000C
S315800200202402000108008013000000008FC200181D
S315800200302442FFFF004020210C00800000000000C7
S31580020040004018218FC200187062100203C0E82196
S315800200508FBF00148FBE001027BD001803E0000872
S315800200600000000027BDFFE0AFBF001CAFBE001836
S3158002007003A0F021AFC00010080080270000000016
S315800200808FC400100C00800000000000AFC2001474
S315800200908FC2001024420001AFC200108FC200102E
S315800200A02842000A1440FFF60000000000001021DA
S315800200B003C0E8218FBF001C8FBE001827BD002019
S30D800200C003E0000800000000C5
S7058002000078
